{
  "contractName": "Owned",
  "abi": [
    {
      "anonymous": false,
      "inputs": [
        {
          "indexed": false,
          "internalType": "address",
          "name": "previousOwner",
          "type": "address"
        },
        {
          "indexed": false,
          "internalType": "address",
          "name": "newOwner",
          "type": "address"
        }
      ],
      "name": "TransferredOwnership",
      "type": "event"
    },
    {
      "inputs": [
        {
          "internalType": "address",
          "name": "_newOwner",
          "type": "address"
        }
      ],
      "name": "transferOwnership",
      "outputs": [],
      "stateMutability": "nonpayable",
      "type": "function"
    }
  ],
  "bytecode": "0x608060405234801561001057600080fd5b50610290806100206000396000f3fe608060405234801561001057600080fd5b506004361061002b5760003560e01c8063f2fde38b14610030575b600080fd5b6100726004803603602081101561004657600080fd5b81019080803573ffffffffffffffffffffffffffffffffffffffff169060200190929190505050610074565b005b61007c6101d6565b73ffffffffffffffffffffffffffffffffffffffff163373ffffffffffffffffffffffffffffffffffffffff16146100b357600080fd5b60006100bd6101d6565b9050600073ffffffffffffffffffffffffffffffffffffffff168273ffffffffffffffffffffffffffffffffffffffff1614156100f957600080fd5b8073ffffffffffffffffffffffffffffffffffffffff168273ffffffffffffffffffffffffffffffffffffffff16141561013257600080fd5b61013b82610219565b7f850b3df64837d7d518b45f5aa64d104652c3b80eb5b34a8e3d9eb666cb7cdea58183604051808373ffffffffffffffffffffffffffffffffffffffff1673ffffffffffffffffffffffffffffffffffffffff1681526020018273ffffffffffffffffffffffffffffffffffffffff1673ffffffffffffffffffffffffffffffffffffffff1681526020019250505060405180910390a15050565b60008060405180807f6f72672e6574686572706c617465746f6b656e732e6f776e65642e6f776e6572815250602001905060405180910390209050805491505090565b600060405180807f6f72672e6574686572706c617465746f6b656e732e6f776e65642e6f776e6572815250602001905060405180910390209050818155505056fea2646970667358221220555cd0c3caa51ebf72b2d81d035d2089cce4c7cbce896a4cbccd8b0397790ce364736f6c63430006060033",
  "immutableReferences": {},
  "source": "pragma solidity >=0.4.21 <0.7.0;\r\n\r\ncontract Owned {\r\n  bytes32 private constant ownerPosition = keccak256(\"org.etherplatetokens.owned.owner\");\r\n\r\n  event TransferredOwnership(address previousOwner, address newOwner);\r\n\r\n  modifier onlyOwner() {\r\n    require(msg.sender == getOwner());\r\n    _;\r\n  }\r\n\r\n  function transferOwnership(address _newOwner) onlyOwner external {\r\n    address owner = getOwner();\r\n    require(_newOwner != address(0));\r\n    require(_newOwner != owner);\r\n    setOwner(_newOwner);\r\n    emit TransferredOwnership(owner, _newOwner);\r\n  }\r\n\r\n  function getOwner() internal view returns (address owner) {\r\n    bytes32 position = ownerPosition;\r\n    assembly {\r\n      owner := sload(position)\r\n    }\r\n  }\r\n\r\n  function setOwner(address _owner) internal {\r\n    bytes32 position = ownerPosition;\r\n    assembly {\r\n      sstore(position, _owner)\r\n    }\r\n  }\r\n}",
  "sourcePath": "C:/Users/Owner/desktop/cs198/DevDecalProject_Sp21/contracts/Owned.sol",
  "compiler": {
    "name": "solc",
    "version": "0.6.6+commit.6c089d02.Emscripten.clang"
  },
  "schemaVersion": "3.4.1",
  "updatedAt": "2021-05-12T05:55:07.587Z",
  "devdoc": {
    "methods": {}
  },
  "userdoc": {
    "methods": {}
  }
}